:100000000C94DC020C9414030C9414030C9414034D
:100010000C9414030C9414030C9414030C94140304
:100020000C9414030C9414030C9456120C94C91ED3
:100030000C94AC280C9414030C9414030C94140327
:100040000C9414030C9414030C9414030C941403D4
:100050000C9414030C942F130C9414030C94140399
:100060000C9414030C9414030C9414030C941403B4
:100070000C9414030C9414030C9414030C941403A4
:100080000C9414030C9414030C9414030C94140394
:100090000C9414030C9414030C9414030C94140384
:1000A0000C9414030C9414030C941403165C1E009B
:1000B0001F0020002100220023002400250026002C
:1000C00027002D002E002A002B0014001A00080023
:1000D000150017001C0018000C00120013002F0060
:1000E00030003100396104001600070009000A00E1
:1000F0000B000D000E000F0033003400000028003C
:10010000E1001D001B000600190005001100100091
:10011000360037003800E50000000000E000E30092
:10012000E200000000002C00000000000000E600DB
:10013000015102510000E400165C3A003B003C0013
:100140003D003E003F0040004100420043004400AB
:1001500045004C00010001005200010001000100B7
:10016000B200010049000100460047004800005C61
:100170000100500051004F0001000100010001008A
:10018000010001004A004B0000000100AC00AA0081
:10019000A900A80001000100145C010001004D004D
:1001A0004E00AB0000000000010001000100000053
:1001B000000001000000000000000100010001003B
:1001C0000000010001003A003B003C003D003E0001
:1001D0003F004000410042004300440045004C0005
:1001E0000100C35C0100C65CC75CC85CC95CCA5C3A
:1001F000CB5CC45C010001000100005C0100010057
:10020000010001000100010001000100CC5CCD5C97
:1002100001000100000001000100010001000100D7
:1002200001000100010001000100010001000100C6
:1002300000000000010001000100000000000100BA
:1002400000000000000001000100010000000100AA
:100250000001010101010101010102020202020289
:10026000020202030303030303030304040404045C
:100270000404050505050506060606060707070723
:100280000708080808090909090A0A0A0B0B0B0CD8
:100290000C0C0D0D0D0E0E0E0F0F0F101011111175
:1002A00012121313141415151616171718181919F6
:1002B0001A1A1B1B1C1D1D1E1E1F2020212222235B
:1002C0002424252626272829292A2B2C2D2D2E2F9C
:1002D00030313232333435363738393A3B3C3D3EB3
:1002E0003F404142434445464748494A4C4D4E4FA2
:1002F00050515354555658595A5B5D5E5F61626464
:10030000656668696B6C6D6F7072737577787A7BF0
:100310007D7E8082838587888A8C8E8F9193959647
:10032000989A9C9EA0A2A3A5A7A9ABADAFB1B3B567
:10033000B7BABCBEC0C2C4C6C9CBCDCFD1D4D6D843
:10034000DBDDDFE2E4E7E9EBEEF0F3F5F8FAFDFFE1
:1003500000AD9DBD00AC9CBC00AB9BBB00AA9ABA93
:1003600000A999B900A898B800A797B700A696B6B3
:1003700000A595B500A494B400A393B300A292B2D3
:1003800000A191B100A090B0007D6D8D007C6C8CBF
:10039000007B6B8B007A6A8A0079698900786888AB
:1003A00000776787007666860075658500746484CB
:1003B00000736383007262820071618100706080EB
:1003C000004D3D5D004B3B5B004A3A5A00493959AC
:1003D00000483858004737570046365600453555CF
:1003E00000443454004333530042325200413151EF
:1003F00000403050001C0C2C001A0A2A0019092950
:1004000000180828001707270016062600150525DE
:1004100000140424001303230012022200110121FE
:1004200000100020001E0E2E004C3C5C001B0B2B0D
:10043000004E3E5E001F0F2F004F3F5F007F6F8F0B
:1004400000AF9FBF05010902A10185020901A100BA
:100450000509190129081500250195087501810272
:100460000501093009311581257F9502750881063E
:1004700009381581257F950175088106050C0A3814
:10048000021581257F950175088106C0C005010907
:1004900080A101850319012AB700150126B700952F
:1004A0000175108100C0050C0901A1018504190125
:1004B0002AA002150126A002950175108100C00531
:1004C000010906A1018506050719E029E7150025A0
:1004D000019508750181020507190029EF1500250E
:1004E0000195F07501810205081901290595057529
:1004F000019102950175039101C005010906A10151
:10050000050719E029E71500250195087501810205
:100510009501750881010507190029FF150026FFBF
:1005200000950675088100050819012905950575CE
:10053000019102950175039101C009023B0002017E
:1005400000A0FA09040000010301010009211101C2
:100550000001224000070581030800010904010091
:10056000010300000009211101000122B600070566
:10057000820320000112010002000000085A4421F9
:10058000120200010200011A0344005A0036003032
:10059000005200470042005F0041004E00530049F6
:1005A0000000000E0344005A005400450043004878
:1005B000000000040309040011241FBECFEFDAE09D
:1005C000DEBFCDBF04B603FE18C080913006909107
:1005D0003106A0913206B09133068730904BA74088
:1005E000B04B59F410923006109231061092320638
:1005F00010923306E0E0F8E3099526E0A6E6B2E0C3
:1006000001C01D92A033B207E1F712E0A0E0B1E013
:10061000E4EEFEE502C005900D92A636B107D9F7CB
:100620000E94D3280C943A2F0C94000090912A0633
:10063000937061F081110BC0946090932A06109220
:1006400015018091FC0581608093FC05089580323E
:1006500010F09C67F2CF880F880F982BEECF909107
:100660002A06937059F080932B0660932C064093D2
:100670002D068091FC0581608093FC050895E8EDCE
:10068000F0E080818E7F80831092E2001092DA0089
:100690001092E100A0EEB0E08C9181608C9380819B
:1006A0008F77808319BCA7EDB0E08C918E7F8C93FF
:1006B00080818F7E80831092B60508952091E4009A
:1006C0003091E50095E6A9012091EC00822F817020
:1006D00020FF06C08091E80080FF06C080E00895FA
:1006E0002091E80022FD1AC08091DB05882389F063
:1006F000853089F08091EB0085FD0FC02091E400EA
:100700003091E50042175307F9F29150E1F684E089
:10071000089582E0089583E0089581E00895EF92BE
:10072000FF920F931F93CF937C018B010E945E0376
:10073000C82F811117C08091E80085FD0BC0809102
:10074000E8008E778093E8000E945E03882399F387
:10075000C82F08C0F70181917F018093F1000150FB
:10076000110949F78C2FCF911F910F91FF90EF90B6
:1007700008958091DD0587FF13C08091E80082FF16
:1007800006C08091E8008B778093E80004C08091D8
:10079000DB058111F2CF08958091DB058823D9F321
:1007A0008091E80080FFF8CF8091E8008E77ECCF51
:1007B000982F9093E900242F762F50E0891731F07D
:1007C0007091EC002091ED005091F00021FD07C0E8
:1007D0009F5F973071F78093E90081E00895309131
:1007E000EB003E7F3093EB003091ED003D7F309386
:1007F000ED003091EB0031603093EB007093EC0032
:100800002093ED005093F0002091EE0027FDE0CF03
:1008100080E00895B0E0A0E0E0E1F4E00C94C32DA6
:10082000C8EDD0E088818F7E8883E7EDF0E080819D
:100830008160808384E082BF81E08093B6058881F7
:100840008E7F888302EE10E0F80110821092DA00A9
:1008500081EEC82ED12CF601108288818F77888393
:1008600088818068888388818F7D888319BC1092F5
:10087000DB051092DC051092DA051092D90590EE96
:10088000E92EF12CF70180818B7F80838881816044
:10089000888342E060E080E00E94D803F601808116
:1008A0008E7F8083F8018081816080838081886071
:1008B0008083F70180818E7F808388818061888337
:1008C000CDB7DEB7E8E00C94DF2DFC018091E305A5
:1008D0009091E40586179707A0F06115710529F43A
:1008E0009091E8009E779093E80090E06115710583
:1008F00051F4911108C08091E80082FF34C080E07B
:100900000895BC01F2CF8091DB058823C1F18530C9
:10091000C1F18091E80083FD30C08091E80082FD44
:10092000EACF8091E80080FFE1CF8091F300209131
:10093000F200382F6115710519F02830310558F093
:1009400091E02830310509F090E02091E8002E7701
:100950002093E800CBCF81918093F1006150710921
:100960002F5F3F4FE7CF8091DB05882341F0853033
:1009700041F08091E80083FFBECF81E0089582E0DE
:10098000089583E0089508958091B8050895209111
:1009900014012223C9F02091B10527FF15C0E62FCD
:1009A000E695E695E695EE31D8F4E80FF92FF11DBE
:1009B000677021E030E001C0220F6A95EAF72095C8
:1009C0008281282322830895FC0132960896219182
:1009D000621303C0DF0111971C92E817F907B9F7FA
:1009E0000895209114012223C1F02091B10527FF21
:1009F00014C0E62FE695E695E695EE31F8F4E80F9B
:100A0000F92FF11D677021E030E001C0220F6A95D7
:100A1000EAF78281822B82830895FC0132962FEFC0
:100A200030E04191641751F02F3F19F4411101C09A
:100A3000232F3F5F3630A9F72F3F09F40895820F27
:100A4000911D27FD9A95FC01628308952091AA05C6
:100A50003091AB052817390771F09093AB0580935F
:100A6000AA05E091A805F091A905309721F000842E
:100A7000F185E02D099508952091A6053091A705EF
:100A80002817390771F09093A7058093A605E09188
:100A9000A805F091A905309721F00680F781E02D97
:100AA00009950895E091A805F091A905309729F0DE
:100AB0000190F081E02D0995089580E00895FA01F4
:100AC000811101C0FB0109950895EAE2F6E0248155
:100AD00030E1231B08F420E024838091FC05816031
:100AE0008093FC050895EAE2F6E0248130E1230FCB
:100AF00008F42FEF24838091FC0581608093FC052E
:100B00000895EAE2F6E0438120E1421B08F440E068
:100B10008181628190E00E942F030895EAE2F6E06D
:100B2000438120E1420F08F44FEF8181628190E020
:100B30000E942F030895EAE2F6E0628120E1621B41
:100B400008F460E08181438190E00E942F030895C2
:100B5000EAE2F6E0628120E1620F08F46FEF818142
:100B6000438190E00E942F030895EAE2F6E081813C
:100B7000438162818850990B0E942F030895EAE215
:100B8000F6E0818190E04381628108960E942F0304
:100B9000089580912A0686958695815009F48FE103
:100BA0000E941603089580912A06869586958F5F88
:100BB000803208F081E00E941603089580931301AB
:100BC00080912A068370809312010E94B30F83E004
:100BD00080931501089522E8241B08F420E0620F99
:100BE00008954095282F429F412D1124842F089568
:100BF000E42FF0E0EE0FFF1FE255FE4F9081921BB5
:100C000097FD9195292F38E1239F212D1124620F03
:100C100008950F931F9310E0F801EE0FFF1FE255A8
:100C2000FE4F9081905797FD9195000F111FF8018D
:100C3000E155FE4F00810052110B2003F001219F6E
:100C4000F00D112408E310E0091B110997FD13951D
:100C500040039001419F300D1124E20FF31F9F01CB
:100C6000220F331F2E0F3F1F37FF02C021583F4F67
:100C7000220F232F221F330B620F1F910F91089514
:100C80000F931F93522F10E0F801EE0FFF1FE15555
:100C9000FE4FA081A052BB0B9D015203F001539F58
:100CA000F00D1124000F111FD801A255BE4F0C9159
:100CB0000057110B40039001419F300D11242E0F5E
:100CC0003F1F37FF02C0215C3F4F96E035952795C7
:100CD0009A95E1F7620F1F910F9108950F931F935B
:100CE000522F10E0F801EE0FFF1FE155FE4FA081DB
:100CF000A052BB0B9D015203F001539FF00D112434
:100D0000000F111FD801A255BE4F0C910057110BB7
:100D100040039001419F300D11242E0F3F1F37FFDC
:100D200002C021583F4F220F232F221F330B620F87
:100D30001F910F910895EF920F93972F23E0029F39
:100D4000B0011124759567956E0D792F0F91EF9075
:100D50000895322F50E0FA01EE0FFF1FE155FE4FCC
:100D60009081905297FD9195440F551FFA01E255DD
:100D7000FE4F2081231B330B290F311D97FD3A9520
:100D8000620F0895E42FF0E0EE0FFF1FE155FE4FD4
:100D90006081621B0895E42FF0E0EE0FFF1FE25523
:100DA000FE4F6081621B0895622F0895E42FF0E0EA
:100DB000EE0FFF1FE255FE4F408134EE439F412D61
:100DC0001124E82FF0E050E0445E5F4FDA01A21BEF
:100DD000B1099D01B7FF03C031952195310993E019
:100DE000220F331F9A95E1F7AF01421B530B9A0173
:100DF00057FD20E0582F259F212D1124822F089583
:100E00000E94221008950E94E80F0895EF92FF9229
:100E10000F939701201B31092F3F310519F010F076
:100E20002FEF30E02095382F320F08F43FEF832F5B
:100E30000F91FF90EF900895FC019B01009729F41A
:100E400080E077FF2BC080E80895AC0197FF04C0D5
:100E500044275527481B590BB901640F751F37FDEF
:100E600010C0241B350BC901A5E0880F991FAA9556
:100E7000E1F70E94F02D80E2861BF7FF0FC08195FD
:100E80000895CB0165E0880F991F6A95E1F7BA01D3
:100E9000621B730B0E94F02D80E6EECF0895EF9257
:100EA0000F93CF93DF93D72FC82FC9010E19BA0123
:100EB0000E941C07602F681B7D2F8C2FDF91CF9124
:100EC0000F91EF9008950F93CF93DF93D72FC82FF3
:100ED000C901BA010E941C07682F600F7D2F8C2F5B
:100EE000DF91CF910F910895EF920F931F93CF93BE
:100EF000DF93D62FC72F182FC9010E19010FBA0182
:100F00000E941C07081B202F219F212D1124822FB6
:100F10006D2F7C2FDF91CF911F910F91EF9008954E
:100F20000F931F93CF93DF93D62FC72F182FC9018D
:100F3000212F201B022FBA010E941C07982F990F06
:100F4000990F891B800F282F219F212D1124822F7B
:100F50006D2F7C2FDF91CF911F910F910895E82F76
:100F600086FDE0952E2F2F7086FD2F5FE695E69586
:100F7000E695E670F0E0E05AFE4F9181929F902D49
:100F8000212D112492959F702295207F922B2081F4
:100F9000920F87FD919580E8890F08950F931F9315
:100FA000CF93DF938B01D82FC42F822F0E94AF07DE
:100FB000EC2FF0E0EE0FFF1FE255FE4F90819058AE
:100FC000890F87FD8195880F682F2CE0629F612D26
:100FD0001124600F712F8D2FDF91CF911F910F91F1
:100FE0000895409110015091110125E038E0429F91
:100FF000C001439F900D529F900D1124875E994C24
:101000009093110180931001890F0895AC018230F3
:10101000910508F408959FEF413E8EE1580740F492
:101020009A0195E0369527959A95E1F798E0920F09
:1010300061E0E62FE90FFF27FF1F9F0135952795F8
:10104000822F229FF001239FF00DF00D11244E17E7
:101050005F0738F49FEF920F961758F78FEF860FC0
:1010600008952F3FE9F361E0620FF6CF0F93CF931E
:10107000DF93D72FC82F47FD419588E390E0841B6D
:10108000910947FD9395889FB001899F700D700D60
:101090001124229FC001239F900D900D1124860FD3
:1010A000971F0E940608982F990F890F682F600FCD
:1010B0007D2F8C2FDF91CF910F91089530E020E0AC
:1010C000869F212D969F200D311D1124C901089561
:1010D00020912E0630E1230F08F42FEF60E1822FDC
:1010E00090E00E945E08BC0188EB9BE00E94A52D69
:1010F00090E080E00895AF92BF92CF92DF92FF928E
:101100000F931F93CF93DF93362F472FE82FF0E0F5
:10111000E05BFD4F71110FC0E4918E2F2E2F6E2FCB
:10112000722FDF91CF911F910F91FF90DF90CF90A1
:10113000BF90AF900895C72FD0E02491F22E022FD8
:1011400010E056E0659FC0011124EFEFF0E0BF0111
:101150000E94A52D832F90E0880F991F35E5369FBB
:10116000D001379FB00D11248A1B9B0B982F990F2C
:10117000980F6F01CC1ADD0AC09ED001C19EB00D40
:10118000D09EB00D11248B2F499FA0011124452F13
:1011900055276F01C41AD50AC09EA001C19E500DEB
:1011A000D09E500D11245F01A91AB108AC9E6001B8
:1011B000AD9ED00CBC9ED00C1124CD2CDD24EC199E
:1011C000FD09E09FE001E19FD00DF09FD00D1124BB
:1011D000ED2F62307105A1F050F46115710509F42D
:1011E0009ECF6130710581F0EB2F852F98CF643051
:1011F000710569F080F06630710509F490CFF4CF85
:10120000E22F2B2F8D2F8BCFE22F252F88CFEB2F87
:10121000822F2D2F84CF2B2F8F2DE52F80CFB0E065
:10122000A0E0E5E1F9E00C94C32D8C01C09116011A
:101230008DE0C89FC02D11242DE0D22EDC0ECD2CC8
:101240002DE32D1510F49DE3C92E20912E0631E0DB
:10125000230F08F42FEF30E050E040E06FEF7FEF16
:1012600080E090E00E94D72E7901D0E02C2FCC15A1
:1012700050F081E0FCE3FD1508F480E0CDB7DEB767
:10128000E8E00C94DF2DFE01E85DFD4F8081909138
:101290001701892311F1409101064150042E000CE1
:1012A000550B47FF1CC0C70160912E0621E0620F5D
:1012B00008F46FEF0E945E08AC0160912B067091FC
:1012C0002C0680912D06F80109950E947B08462F77
:1012D000282F672FCE010E9403072196C7CFFA015E
:1012E000EF5FF94F818982130AC0FA01EE0FFF1FE9
:1012F000EF5FF94F818D928D8E159F05A8F24150B9
:101300005109CFCFB0E0A0E0E8E8F9E00C94C42D9B
:101310007C01C09116018DE0C89FC02D11241DE0F5
:101320001C0F012F1E3308F00DE360912E06669509
:10133000669521E0620F08F46FEF8091FD059091B2
:10134000FE050E945E08D82ED0E0C01748F081E06C
:101350001D3308F080E0CDB7DEB7E7E00C94E02D58
:10136000FE01E85DFD4F808190911701892391F086
:1013700060912B0670912C0680912D062D2D4C2FFF
:10138000F70109950E947B08462F282F672FCE0171
:101390000E9403072196D9CFB0E0A0E0E2EDF9E08A
:1013A0000C94C02D6C01C09116018DE0C89FC02D1A
:1013B00011241DE01C0FB12E1E3310F03DE3B32E9F
:1013C00060912E06669566958091FD059091FE05CB
:1013D0000E945E08F82E80E48F0D0E94AF0790E80F
:1013E000A92EA80E8F2D0E94AF0720E8922E980EEE
:1013F000D0E0CB1548F081E01D3308F080E0CDB798
:10140000DEB7EBE00C94DC2DFE01E85DFD4F808142
:10141000909117018923A1F060912B0670912C0601
:1014200080912D06EF2C0C2F292D4A2DF6010995C0
:101430000E947B08462F282F672FCE010E940307AA
:101440002196D7CFB0E0A0E0E8E2FAE00C94BE2D00
:101450005C01C09116018DE0C89FC02D11241DE0D4
:101460001C0FF12E1E3310F03DE3F32E60912E067B
:1014700066958091FD059091FE050E945E08782E8C
:10148000D0E0CF1548F081E01D3308F080E0CDB703
:10149000DEB7EDE00C94DA2DFE01E85DFD4F8081B2
:1014A000909117018923C9F1CE01880F991F88599E
:1014B0009E4FFC01EA5BFF4F2081422F4057550BA6
:1014C0006A01895B9F4FFC018081282F2052330BDA
:1014D0004901449F9001459F300D300D1124889C97
:1014E000C001899C900D900D1124820F931F0E94C2
:1014F0000608082F60912B0670912C0680912D060E
:10150000E72C9401A601F50109950E947B08462F5E
:10151000282F672FCE010E9403072196B2CFB0E09B
:10152000A0E0E5E9FAE00C94C32D7C01C09116011E
:101530008DE0C89FC02D11241DE01C0FD12E1E333D
:1015400010F03DE3D32E60912E0666958091FD0547
:101550009091FE050E945E08C82ED0E0CD1548F09F
:1015600081E01D3308F080E0CDB7DEB7E8E00C94F1
:10157000DF2DFE01E85DFD4F8081909117018923E9
:1015800011F1CE01880F991F88599E4FFC01E95B2C
:10159000FF4F20812052330B8A5B9F4FFC0140811B
:1015A0004057550B60912B0670912C0680912D06AB
:1015B0000C2DF70109950E947B08462F282F672FD5
:1015C000CE010E9403072196C9CF409146038D3E6C
:1015D00059F48091470387FF0DC0109247034111D2
:1015E0000BC010923E0308C08E3E81F480914703E9
:1015F00018169CF3442381F080914803909149038D
:10160000892B09F05AC010923D0308958F3E49F48A
:1016100047FFF0CF10924603809147038111ECCF32
:10162000E0CF803F19F41416ACF3E4CF9091480357
:10163000893F29F41916F4F610924803DBCF8A3F4C
:1016400019F497FFD7CFF8CF909149038B3F29F436
:1016500097FFD0CF10924903CDCF8C3F19F41916C4
:10166000CCF3C8CF9FE0980F983090F4815F990B2E
:1016700021E030E0B90102C0660F771F8A95E2F7DA
:10168000CB01809590914503892380934503B2CF88
:101690008D3F31F480913F038E7F80933F03AACF2B
:1016A0008E3F21F480913F038D7FF7CF8F3F09F06C
:1016B000A1CF80913F038B7FF0CF089580913F03AE
:1016C00080FD16C081FD16C082FD16C080913D03CD
:1016D0008823A1F0883280F428E0829FC001112481
:1016E00068E270E00E94F02D862F672B39F0089594
:1016F00082E0089584E0089588E0089581E00895E7
:1017000080913F0380FD14C081FD14C082FD16C08E
:1017100080913E03882381F08E3180F420E5829F02
:10172000C00111246EE170E00E94F02D862F089513
:1017300084E1089588E2089588E0089580E5089599
:101740008D3E31F40E94800B81958093470308956C
:101750008E3E19F40E94800BF8CF8F3E31F40E9428
:10176000800B8195809346030895803F19F40E9471
:10177000800BF8CF893F29F40E945E0B80934803C9
:1017800008958A3F21F40E945E0B8195F7CF8B3F2D
:1017900031F40E945E0B81958093490308958C3F3C
:1017A00019F40E945E0BF8CF9FE0980F983070F408
:1017B000815F990B21E030E001C0220F8A95EAF7A2
:1017C00080914503822B8093450308958D3F31F42A
:1017D00080913F03816080933F0308958E3F21F401
:1017E00080913F038260F7CF8F3FB9F780913F032D
:1017F0008460F1CF80E00895F894E82FE295EF70CF
:10180000F0E031A1282F2F7081E090E001C0880F17
:101810002A95EAF7982F9095932391A392A1892B6B
:1018200082A3789408959091B10592FF06C0282F65
:1018300028712830F9F4877F846093FF06C0282F31
:1018400028712831F1F4877E84612091B20520FF50
:1018500006C0382F38713830D9F4877F816021FF76
:1018600006C0282F28712831D1F4877E816194FD2C
:10187000877E0895282F24712430F9F68B7F8860A5
:10188000DCCF282F2471243101F78B7E8861DDCFD6
:10189000382F3171313019F78E7F8860E0CF282FD3
:1018A0002171213121F78E7E8861E1CF972F75302C
:1018B000A8F46E3098F470E02EE0929F600D711DD8
:1018C0001124FB0196E4899FE00DF11D1124EE0F18
:1018D000FF1FE455FF4F85919491089580E090E0BB
:1018E0000895CF93DF93EC0182389105A9F1D8F5E3
:1018F0008133910509F496C048F58932910509F4C0
:101900008AC08A9709F495C0C11521E5D20708F06D
:10191000BCC0C11530E5D30708F014C1C83ED105DD
:1019200008F09CC0C03ED10560F5C83AD10508F06A
:1019300087C0C53AD10508F0FDC0C130D10509F115
:101940002097F9F0C430D105E0F440C0853391050B
:1019500009F45AC0C997C1F68091B105837089F026
:10196000C0EED0E00EC0833E910599F170F4803E48
:10197000910501F1823E910539F68091B10582FD14
:1019800021C0CE01DF91CF910895863E910561F18E
:10199000873E910571F1843E910509F0B5CF8091A4
:1019A000B20581FFEECF8091B105C7EED0E084FD96
:1019B0000DC0E7CF8091B10580FD12C19091B205B5
:1019C00090FFDFCFC3EED0E084FFDBCFD0E0C0E0FC
:1019D000D8CF8091B10582FD06C19091B20590FDEE
:1019E000BFCF84FFCECFF2CF8091B10583FDDDCF95
:1019F000C8CF8091B10583FDF9C09091B20591FFE8
:101A0000F0CFC4EED0E0BDCF8091B10585FFB9CF56
:101A1000C9E2D0E0B6CF8091B10585FFB2CFC5E372
:101A2000D0E0AFCF8091B10586FFABCFCAE2D0E066
:101A3000A8CF8091B10586FFA4CFC1E3D0E0A1CFAC
:101A4000CF3BD10518F6C85AD0E0CC0FDD1FC15EE0
:101A5000DE4F0990D881C02DD46493CFC11540E2E8
:101A6000D40758F4C11581E0D80708F08ACFCD3EDD
:101A7000D10508F4ABCFD06584CFC11590E4D90768
:101A800008F4A4CFDF70D06A7CCFC11525E5D2075A
:101A900000F5C11534E5D30708F08AC0C11543E548
:101AA000D40708F071C0C11582E5D80708F467C0F3
:101AB000CE018370992721E030E002C0220F331F4E
:101AC0008A95E2F7C695C69580E2C89FE001112489
:101AD00052C0C11599E5D907A8F4C11528E5D20768
:101AE00008F06BC0C11536E5D30708F06FCF8C2F17
:101AF0000E94130CC82FD0E0DC2FCC27CC27DF713D
:101B0000D0623FCFC1154AE5D40708F45BC0CE01CF
:101B100090568115904208F059CF8D2F8F710E94F9
:101B2000130C90E0982F882788279F719C012C2BFD
:101B3000E901E6CFC55AD0E0C45EDE4FC881D0E0EF
:101B4000D0641FCFCE01E4E096958795EA95E1F742
:101B500083702C2F26952695237040E2249F9001B8
:101B60001124382B8C2F8370C1E0D0E002C0CC0F41
:101B7000DD1F8A95E2F7C22BD32BDC6802CFDC2F66
:101B8000CC27C16FD06AFDCECE018370992721E0AA
:101B900030E002C0220F331F8A95E2F7C695C69542
:101BA00090E2C99FE0011124C22BD32BDA68E9CE61
:101BB000DC2FCC27C46FD06AE4CEDC2FCC27C06FDB
:101BC000D06ADFCE8C2F8F700E94130C34E0D69534
:101BD000C7953A95E1F7CF709C2FEC01D069D1CE33
:101BE000C9E3D0E0CECEC2EED0E0CBCEC6EED0E0A0
:101BF000C8CE809111038111109211030895809530
:101C00009091100398239093100308958091ED0212
:101C10009091BC02981301C008958F5F8770FACF2E
:101C2000B0E0A0E0E6E1FEE00C94C22D8C01C09093
:101C30002303D0902403E0902503F09026038091A5
:101C4000120390911303A0911403B0911503C82AB5
:101C5000D92AEA2AFB2ACFE1D0E0BC2ED701C6015F
:101C60000C2E04C0B695A795979587950A94D2F740
:101C700080FD09C0219788F7B12C8B2DCDB7DEB739
:101C8000E9E00C94DE2DB8018C2F0E94560C0E94C6
:101C9000710C019779F3F1CFCF93DF93EC010E94A0
:101CA000100EBE010E94560C0E94710CDF91CF9164
:101CB0000895292F953080F58E3070F590E03EE044
:101CC000239F800D911D1124682F677023E0969546
:101CD00087952A95E1F725E0289FF001299FF00DCF
:101CE0001124E757FD4F50E040E080E0219130E0C3
:101CF000062E02C0369527950A94E2F72170332705
:101D0000042E01C0220F0A94EAF7822B4F5F5F4F27
:101D10004530510559F7089580E00895292F9530F1
:101D2000A0F58E3090F590E03EE0239F800D911D50
:101D30001124282F277041E001C0440F2A95EAF7AB
:101D400023E0969587952A95E1F725E0289FF001F5
:101D5000299FF00D1124E757FD4F30E020E070E09F
:101D60005191DF011197CB01022E02C09695879504
:101D70000A94E2F7817081958527842385278C93C7
:101D80002F5F3F4F2530310559F70895FC018081C1
:101D900091810E944C0E92959F70963091F058F46C
:101DA000925F9F70923058F4803F19F030F4883E73
:101DB00030F481E008959A5FF4CF843FD1F380E05E
:101DC0000895883EB0F3813FD1F7F3CF8093B305F8
:101DD0007093B5056093B4058091DB05843001F5FF
:101DE00082E08093E9008FEF9091E800815095FDAB
:101DF00006C095ED9A95F1F700008111F5CF80911D
:101E0000E80085FF0DC050E040E063E070E083EB48
:101E100095E00E948F038091E8008E778093E80020
:101E20000895BC0184E00E94E60E0895BC0183E0A1
:101E30000E94E60E08959C0182E08093E9009FEFE6
:101E40008091E800915085FD06C085ED8A95F1F7F7
:101E500000009111F5CF8091E80085FF0CC050E0A3
:101E600040E066E070E0C9010E948F038091E800C5
:101E70008E778093E8000895CF93DF93EC018091F3
:101E800014018823B1F18091B10587FF32C060E26F
:101E900082E08093E9008FEF9091E800815095FDFA
:101EA00006C095ED9A95F1F700008111F5CF80916C
:101EB000E80085FF1BC08091140170E050E040E015
:101EC000811104C050E040E068E070E0CE010E9463
:101ED0008F038091E8008E778093E80080E2FE0116
:101EE000A9EBB5E001900D928A95E1F7DF91CF91D2
:101EF000089568E081E0CDCF81E08093E00080E24A
:101F00008093D8001092C9008FE19EE40197F1F709
:101F100000C0000087E090EBDC01809330069093D6
:101F20003106A0933206B093330688E19CE00FB6E9
:101F3000F894A895809360000FBE90936000FFCF47
:101F40008093E5056093E60524E630E042E050E04A
:101F500065EE75E080EA0E94842D21E0892B09F06E
:101F600020E0822F0895CF93DF938091E5048823AA
:101F700031F165EC8EEF0E94A00F61E08DEF0E94C1
:101F8000A00FD0E0C0E0C093E505DE01AA51BB4F31
:101F9000E6EEF5E08D91819385E0E63FF807D1F715
:101FA00024E630E041E150E065EE75E080EA0E9411
:101FB000842D892B49F46096C03CD10521F71092FD
:101FC000E504DF91CF91089581E08093E404F7CF99
:101FD000A4E0B0E0EEEEFFE00C94C62DF62E042F48
:101FE000122F8D33910550F5880F991F880F991F77
:101FF000BC01605B7C4F44E050E0CE0101960E9442
:10200000662E89818370AA81E82FF0E020EC829F00
:10201000C00111248A519B4FA80FB92FB11DFC920A
:10202000AB81A80FB92FB11D0C932C81820F911D8C
:10203000DC011C93EB51FB4F81E080832496E5E0AB
:102040000C94E22DFF920F931F93CF93DF93182FE1
:10205000062FF42ED0E0C0E02F2D402F612FCE01AF
:102060000E94E80F2196CD33D105B1F7CDB7DEB789
:10207000E5E00C94E22DA4E0B0E0E1E4F0E10C94A2
:10208000C12D0E94E12C65EC8EEF0E94A00F60E054
:102090008DEF0E94A00F10E060E0812F0E94A00F42
:1020A0001F5F1831C9F765EC8EEF0E94A00F61E049
:1020B0008DEF0E94A00F10E060E0812F0E94A00F22
:1020C0001F5F103CC9F765EC8EEF0E94A00F63E024
:1020D0008DEF0E94A00F60E08FE00E94A00F60E0F3
:1020E00080E10E94A00F6FEF81E00E94A00F61E0ED
:1020F00080E00E94A00F8FE39CE90197F1F700C0F8
:10210000000000E513E094E4C92E94E0D92E28E104
:10211000A22EEE24E394F12CBB24B39444E050E0CF
:10212000B801CE0101960E94662E6A815B814C81C6
:102130008981837090E0E62FE695E695E695A89E66
:102140009001A99E300D112424533B4FE20FF32F31
:10215000F11D6770D70102C0AA0FBB1F6A95E2F795
:10216000BD017081672B6083E52FE695E695E695C6
:10217000E20FF32FF11D5770B70101C0660F5A959A
:10218000EAF75081562B5083E42FE695E695E695C5
:10219000E20FF32FF11D4770970102C0220F331F8A
:1021A0004A95E2F7A9012081242B20838C519B4F73
:1021B000DC01BC920C5F1F4FC016D10609F0AECFF8
:1021C00065EC8EEF0E94A00F60E08DEF0E94A00FE3
:1021D0008CECE82E84E0F82E10E0F70161917F018D
:1021E000812F0E94A00F1F5F1831B9F71092E404ED
:1021F0002496EAE00C94DD2D1F93CF93DF93EC013E
:10220000FC01E85DFD4F80816823B1F00E94562EED
:10221000182F0E94562E8F77782F20E8720F08F41F
:102220007FEF612F80912D060E947B08462F282F7B
:10223000672FCE010E940307DF91CF911F91089570
:10224000B0E0A0E0E6E2F1E10C94C42D8C01FC01C9
:10225000E85DFD4F8081682349F1D0902C06D09134
:102260002D06C0912B06EC2EF12C0E94562E282F05
:10227000C7018C549F4F68E671E00E94F02D8E19C3
:102280009F0997FD0396959587959595879523705A
:102290006C2F289F600D11247D2D8D2F0E947B08AF
:1022A000462F282F672FC8010E940307CDB7DEB73E
:1022B000E7E00C94E02DEAE2F6E085E2808380918D
:1022C000190190911A01A0911B0181839283A3832C
:1022D0008FE784838FEF858346E050E06CE170E008
:1022E000CF010E94A32E1092FC0508958091100347
:1022F00090910F03892B8093680290911103992389
:10230000A1F0892B80936802809114018823E1F168
:102310008091B10587FF38C08EE1EAE6F2E090E0F7
:102320008150A0F591110E94F90D40E250E06FEE4E
:1023300072E088E692E00E946F2E892B21F180E204
:10234000E8E6F2E0AFEEB2E001900D928A95E1F797
:10235000E091A805F091A9053097A9F080911401AA
:10236000882359F08091B10587FF07C080916802EA
:102370008093690286E0809368020280F381E02DF9
:1023800088E692E00995089586E0C7CF219122233F
:1023900039F29F5FC5CF882321F00E94FF0D0E9474
:1023A00076110895882339F090911003982B90931B
:1023B00010030E9476110895CF9384E090E00E946C
:1023C000952EC82F82E290E00E94952E982F8C2F98
:1023D000CF91089568EE7EEF90E080E00E94D12ECC
:1023E00060E082E090E00E94B32E60E083E090E045
:1023F0000E94B32E10921203109213031092140332
:102400001092150360E084E090E00E94B32E64E037
:1024100082E290E00E94B32E60E085E090E00E94AE
:10242000B32E60E086E090E00E94B32E6FEF87E06D
:1024300090E00E94B32E40E050E0BA0188E090E0C6
:102440000E94C52E60E08DE090E00E94B32E40E037
:1024500050E0BA0188E190E00E94C52E60E087E17B
:1024600090E00E94B32E40E050E0BA018CE190E091
:102470000E94C52E70E060E080E290E00E94D12EC4
:1024800040E050E0BA0188E190E00E94C52E40E0B3
:1024900050E0BA018FE090E00E94C52E40E050E08D
:1024A000BA0183E190E00E94C52E08951F920F9219
:1024B0000FB60F9211242F933F934F935F936F9317
:1024C0007F938F939F93AF93BF93EF93FF938091ED
:1024D000E10082FF09C08091E20082FF05C0809187
:1024E000E1008B7F8093E1008091DA0080FF24C0BF
:1024F0008091D80080FF20C08091DA008E7F809389
:10250000DA008091D90080FF9DC080E189BD82E121
:1025100089BD09B400FEFDCF81E08093DB05809189
:10252000B605811109C00E943F030E940A048091F0
:10253000E20084608093E2008091E10080FF17C098
:102540008091E20080FF13C08091E2008E7F809333
:10255000E2008091E20080618093E2008091D800E7
:1025600080628093D80019BC85E08093DB05809160
:10257000E10084FF2BC08091E20084FF27C080E14E
:1025800089BD82E189BD89B5982F917080FFFBCF0D
:102590008091D8008F7D8093D8008091E1008F7E5C
:1025A0008093E1008091E2008F7E8093E200809131
:1025B000E20081608093E2008091DC05882309F4C9
:1025C00047C084E08093DB058091DB058091E100CA
:1025D00083FF27C08091E20083FF23C08091E10048
:1025E000877F8093E10082E08093DB051092DC0519
:1025F0008091E1008E7F8093E1008091E2008E7FE8
:102600008093E2008091E20080618093E20042E0EA
:1026100060E080E00E94D8038091F00088608093A1
:10262000F000FF91EF91BF91AF919F918F917F91BA
:102630006F915F914F913F912F910F900FBE0F902F
:102640001F90189519BC1092DB051092B60574CF37
:102650008091E30087FD93E09093DB05B5CF7894FC
:102660001F921FB61F9211248F939F93AF93BF9316
:102670008091AD059091AE05A091AF05B091B005E8
:102680000196A11DB11D8093AD059093AE05A09359
:10269000AF05B093B005BF91AF919F918F911F90FF
:1026A0001FBE1F9018959C014FB7F8948091AD05FF
:1026B0009091AE05A091AF05B091B0054FBF821BC0
:1026C000930B08952FB7F8948091AD059091AE05C6
:1026D000A091AF05B091B0052FBF0895A8E0B0E07C
:1026E000E4E7F3E10C94B92D582E80911301851184
:1026F00024C090912A0693702091120130E081E06D
:102700009217130609F480E081708093180180917C
:102710002F0690911701981739F08093170140E028
:1027200060E080E00E9400072FE1251560F0E52DB4
:10273000F0E0E45CF04D0C94042E81E0E5CF809154
:102740001801811119C01982809116018F5F809341
:102750001601298121110CC082E08093150180911E
:102760001801811105C0511003C083E08093150149
:102770002896E2E10C94D52D40E060E080E00E94D4
:102780000007E1CF309116018DE0389F802D112494
:102790008983182F135F012F1E3308F00DE360911A
:1027A0002B0670912C0680912D060E947B08F62E38
:1027B000D72EC82E5981452F50E05E834D839D81D1
:1027C000901718F0A1E0A98386C0ED81FE81E85D35
:1027D000FD4F808190911701892339F02C2D4F2DC9
:1027E0006D2D8D819E810E9403078D819E810196B2
:1027F0009E838D83E4CFB09116018DE0B89F802D2C
:1028000011248983182F135F012F1E3308F00DE365
:10281000D0902C06F0902D06E0912B06EA836E2FC7
:102820007D2D8F2D0E947B08C62EB72EA82E60917D
:102830002E06FA816F0F7D2D8F2D0E947B08F62EBC
:10284000D72E982E3981232F30E03E832D835D8152
:10285000501718F081E089833EC0ED81FE81E85D6C
:10286000FD4F908180911701892361F0292D4F2D13
:102870006D2D90FD03C02A2D4C2D6B2D8D819E81D9
:102880000E9403074D815E814F5F5F4F5E834D83E2
:10289000DECF909116018DE0989F802D11248983C1
:1028A000182F135FF12E1E3310F05DE3F52ED0903C
:1028B0002C06C0902D0620912E0600E4029F012DCB
:1028C0001124B981AB2FB0E0BE83AD83FD81FF152C
:1028D00030F021E029831D3308F436CF34CFED8169
:1028E000FE81E85DFD4F8081909117018923E9F019
:1028F000ED81FE81EE0FFF1FE255FE4F6081069FC6
:10290000B001112445E0759567954A95E1F78091EE
:102910002B06680F7D2D8C2D0E947B08462F282FBB
:10292000672F8D819E810E940307ED81FE81319684
:10293000FE83ED83CBCF309116018DE0389F802D43
:1029400011248983182F135F012F1E3308F00DE324
:10295000F0902B0640912C064A83D0902D06609172
:102960002E066695669566958091FD059091FE050B
:102970000E945E080E94AF07805887FD8195880FEE
:10298000582F2D2D529F512D1124852F6F2D7A8177
:102990000E947B08F62ED72EC82E5981452F50E075
:1029A0005E834D839D81901708F00CCFED81FE81F1
:1029B000E85DFD4F808190911701892339F02C2D1E
:1029C0004F2D6D2D8D819E810E9403078D819E81EB
:1029D00001969E838D83E6CF86ED96E00E94820964
:1029E00004C080E997E00E948F0A8983ADCE84E716
:1029F00097E00E94220AF9CF84ED96E0EFCF8BECAE
:102A000096E0ECCF82EC96E0E9CF89EA96E0E6CF5B
:102A10008BE996E0EECF86E398E0E5CF83E697E09A
:102A2000E2CF8FE497E0E5CF8EE696E00E94CC09F6
:102A3000DCCF80E496E0FACF89E096E0F7CFB09162
:102A40001801B983B1111EC060912E0620E1620FFA
:102A500008F46FEF8091FD059091FE050E945E08DD
:102A60006AE070E00E94A52D892B09F06CCE0E94CF
:102A7000562E6DE370E00E94F02D609117010E94C8
:102A8000201162CEE09116018DE0E89F802D112487
:102A900089832DE0F22EF80E0F2DFDE3FF1508F4CB
:102AA0000DE33981232F30E03E832D8310E08D81AB
:102AB0009E81801791073CF091E09983ACE3AF15BC
:102AC00008F042CE40CE609117018D819E810E9418
:102AD00020114D815E814F5F5F4F5E834D83E7CF55
:102AE000B0911801B983B1111EC060912E0620E18A
:102AF000620F08F46FEF8091FD059091FE050E9432
:102B00005E0865E070E00E94A52D892B09F01BCEC0
:102B10000E94562E6DE370E00E94F02D6091170127
:102B20000E94FC1011CEE09116018DE0E89F802DEF
:102B3000112489839DE0F92EF80E0F2DFDE3FF157A
:102B400008F40DE33981232F30E03E832D8310E01C
:102B50008D819E81801791070CF0AECF6091170197
:102B60008D819E810E94FC104D815E814F5F5F4F81
:102B70005E834D83EDCFB09116018DE0B89F802D1F
:102B800011248983182F135F012F1E3308F00DE3E2
:102B9000D0902C06F0902D06E0912B06EA836091F0
:102BA0002E066695669566958091FD059091FE05C9
:102BB0000E945E080E94AF07805887FD8195880FAC
:102BC000682F2CE0629F612D1124FA816F0F7D2DFB
:102BD0008F2D0E947B08F62ED72EC82E3981232FE9
:102BE00030E03E832D835D81501708F033CEED81B8
:102BF000FE81E85DFD4F808190911701892339F0B6
:102C00002C2D4F2D6D2D8D819E810E9403074D81AE
:102C10005E814F5F5F4F5E834D83E5CF8EEC97E023
:102C2000DDCE88EF95E0DACE40914A0350914B0318
:102C300060914C0370914D038091FD059091FE05CC
:102C4000A091FF05B091000684179507A607B70766
:102C500008F479CD0E94F107182F0E94F1079DE337
:102C6000891BF0F7890FA82FB0E0BE83AD83FD016B
:102C7000E85DFD4F809117019081892309F40FC40D
:102C800011FF2BC020E040E060E0CD010E9403076F
:102C900020912E0630E1230F08F42FEF60E1822F00
:102CA00090E00E945E08BC0184EF91E00E94A52D97
:102CB0008091FD059091FE05A091FF05B091000661
:102CC000860F971FA11DB11D80934A0390934B035C
:102CD000A0934C03B0934D0336CD0E94F107182FFB
:102CE0000E94F107782F76952FE7720F08F47FEF97
:102CF000612F80912D060E947B08462F282F672F79
:102D00008D819E81C3CF409105045091060460914E
:102D10000704709108048091FD059091FE05A09133
:102D2000FF05B091000684179507A607B70708F4BA
:102D30000ACD80911801811125C0B09116018DE056
:102D4000B89F802D11248983182F135F012F1E3304
:102D500008F00DE3E981CE2ED12C43E0E49F9001F1
:102D60001124225B3C4F3E832D83C01608F44DC0D6
:102D7000EEE4F3E082E094E01D3308F068C0F1E097
:102D8000F983E2CC40E060E080E00E9400070EE4BE
:102D900013E01E821D828FE7F82E0E94F10781FF4B
:102DA00013C0D8011C9211961C92119712961C9276
:102DB0002D813E812F5F3F4F3E832D830D5F1F4F3F
:102DC0002D33310551F7B9CF0E94F107B82E0E947B
:102DD000F1078695782F2F2D720F08F47FEF8D81E4
:102DE0009E81880F991F4D815E81840F951FDC01A4
:102DF000A25BBC4F6D016B2D80912D060E947B085C
:102E0000F601608371838283D3CFF601E85DFD4FC5
:102E1000808190911701892359F0AD81BE8112966E
:102E20002C9112974C9111966C91C6010E94030748
:102E3000ED81FE813396FE83ED83FFEFCF1ADF0A2B
:102E400094CF2381348145812193319341938E170F
:102E50009F07B9F70E94F10781FF1FC0109202047B
:102E600010920304109204040E9468080091FD056A
:102E70001091FE052091FF0530910006DC01CB0189
:102E8000800F911FA21FB31F809305049093060427
:102E9000A0930704B093080456CC0E94F1078983DD
:102EA0000E94F1078695782F2FE7720F08F47FEFC5
:102EB000698180912D060E947B08609302047093C3
:102EC000030480930404D0CF40914F0450915004E8
:102ED00060915104709152048091FD059091FE051E
:102EE000A091FF05B091000684179507A607B707C4
:102EF00008F429CC80911801882329F040E060E093
:102F000080E00E94000760912B0670912C06809152
:102F10002D060E947B08F62E772E682E29E034E0DD
:102F20003E832D8308E611E0ADE0AA2EB12C4801C6
:102F3000CD80DE80E6E04E2ED6012D916D01F401AC
:102F400081914F0190E0222309F480C0262D4F2D5E
:102F5000672D0E940307D6018C91F601319780837B
:102F60004A944110E9CF6501F6E04F2EF601E75F84
:102F7000FB4F4F01F601E859FE4F808190E0D401EC
:102F80002C91222309F466C0262D4F2D672D0E9417
:102F90000307F40131978081F40180834A94F1E0C2
:102FA000CF1AD1084110E2CFD80117968C9190E04A
:102FB000ED81FE812781222309F450C0262D4F2D5B
:102FC000672D0E940307D80116968C9190E0ED8141
:102FD000FE812681222309F445C0262D4F2D672D21
:102FE0000E9403070E94F107837091E009F090E0CE
:102FF000AD81BE8116969C93169717969C93179752
:103000001E96BE83AD83025F1F4FBEE0AB0EB11CA8
:10301000E3E5AE16B10409F08ACF0E94680800917A
:10302000FD051091FE052091FF0530910006DC01A1
:10303000CB01800F911FA21FB31F80934F04909369
:103040005004A0935104B09352047DCB20E040E0A3
:1030500060E07FCF20E040E060E099CF20E040E0FA
:1030600060E0AFCF20E040E060E0BACFF091160121
:103070008DE0F89F802D112489837DE0372E380E56
:10308000132D26E4231508F416E4809118018823F3
:1030900061F040E060E080E00E940007E8E5F4E0D5
:1030A00086E4DF011D928A95E9F78091160181116E
:1030B00015C080915404909155040E94531321E04F
:1030C0008931910508F420E020935304499730F0AA
:1030D0000E9462139093550480935404F981EF2F5A
:1030E000F0E0FE83ED83612E712C45E0842E912C5F
:1030F0005EE0252E6AEAF62E2D813E8126153705E3
:103100003CF031E0398345E4431508F01DCB1BCB7F
:103110008D819E81B4010E94F02D6B015C012A9C7F
:10312000C0012B9C900D1124FC01E85AFB4FE60FC7
:10313000F71F408088599E4FFC01E60FF71F008162
:103140000F3F51F110E0F801E85DFD4F8081909153
:103150001701892309F1342D25E5321B08F430E0ED
:1031600070912C062F2D442D240F08F42FEF409141
:103170002D06822F880F820F8E5F582F549F512D5E
:103180001124852F6F2D631B0E947B08462F282F4B
:10319000672FC8010E94030780915304882389F098
:1031A000242D31E0231B08F420E0422E2A9CC0018C
:1031B0002B9C900D1124885A9B4FC80ED91ED60106
:1031C0002C93ED81FE813196FE83ED8395CFF090B7
:1031D0002D06A3E0FA9EC001112496958795969539
:1031E00087959E838D834D80AF2CB12C8FEF90E01F
:1031F000B5010E94F02D762E80911801882371F080
:1032000040E060E080E00E940007E8E5F4E086E44A
:10321000DF011D928A95E9F71092570480915604B8
:103220008F5F8093560410E000E0ED81FE81AE1ABE
:10323000BF0A6801612CD801A85ABB4F4D0180918B
:103240005704862909F045C00E94562E85359540C1
:103250000CF03FC0D401FC92F601E859FE4FE0812A
:10326000EF3FE1F0D601A85ABB4F2C91F0E0421697
:1032700008F040C030E04D815E81241B350B249F57
:10328000C001259F900D349F900D1124B5010E941F
:10329000A52D262F4F2DCF010E94030763945EE0DA
:1032A000C50ED11C85E06812CACF0F5F1F4F0E30CC
:1032B000110509F0BECF80915604781202C0109219
:1032C0005604809157048F5F8D31F8F48093570432
:1032D0003ACAF601E85AFB4F8081882309F4BCCF33
:1032E0008F1508F0B9CF909156047912B5CF81505F
:1032F0008083B2CFF29EC00111246D817E810E9435
:10330000A52D462F20E060E0C6CF1092570422E89A
:1033100034E084E046E654E09FEF9F0DA8E5B4E07A
:10332000F901843041F4D8966C91D897F61203C015
:10333000D8969C93D89760816F1510F09083F6868D
:10334000119631964A175B0761F781502E5031096B
:103350008111E4CFF8C981EF95E00E940F0945CBB8
:103360008BEE95E0FACFB0910106BB8321E03B2FB5
:10337000321B08F430E03983409116018DE0489FFC
:10338000802D11248D83835F8A838C838E3310F08C
:103390005DE35C839D81892F90E098878F83880F00
:1033A000991FDC01A255BE4F6D01B9818B2F90E0B2
:1033B000FC013196FE83ED838C819F81981738F054
:1033C000A1E0A983BA81BD3308F4BEC9BCC9EF81AD
:1033D000F885E85DFD4F8081909117018923F1F018
:1033E00020902B0630902C062D813E812F5F394F87
:1033F0003901498010E03B814316D0F020912D0621
:10340000129F112D1124B101812F0E947B08462F9C
:10341000282F672F8F8198850E9403074F81588539
:103420004F5F5F4F58874F8352E0C50ED11CC4CF0A
:10343000D3018D913D01F601A080A81ABB088180BF
:1034400017968C91881A9908AA9C9001AB9C300D14
:10345000300D1124889CC001899C900D900D112481
:10346000820F931F0E940608082F60912E0621E00C
:10347000620F08F46FEFF301EE0FFF1FE150F6400B
:10348000858996890E945E087C019401A501B1019D
:10349000812F0E9406071B014394182FACCFE1E057
:1034A000E98352C98F929F92AF92BF92CF92DF92DF
:1034B000EF92FF921F93CF93DF938091C704909177
:1034C000C804A091C904B091CA042FB7F8948090A1
:1034D000AD059090AE05A090AF05B090B0052FBFA0
:1034E00075016401C81AD90AEA0AFB0A2FB7F894D1
:1034F0004091AD055091AE056091AF057091B0055A
:103500002FBF4093C7045093C8046093C9047093BD
:10351000CA0410919E04EEE9F4E0C12FD0E00197B7
:10352000AF4FBF4F88199909AA09BB091D1327C0BE
:10353000C0939E048091CB04C0E0811108C08091AB
:103540002A06C82FC37019F0C82FC695C69580915A
:1035500015018130F1F1882329F1823009F44AC044
:10356000833009F44BC0DF91CF911F91FF90EF9012
:10357000DF90CF90BF90AF909F908F900895218D56
:10358000328D4901B12CA12C88159905AA05BB05DE
:1035900020F4C150DF5F3296C9CF2C0D3D1D328F14
:1035A000218FF8CF109216014093FD055093FE0530
:1035B0006093FF057093000689E2EEE9F4E0A1E074
:1035C000B6E001900D928A95E1F781E080931501B4
:1035D000CACF8C2F0E946E13CC2329F20E94520571
:1035E00081FFC1CF2FEF4FEF6FEF88E290E00E9495
:1035F0000307B9CF8C2F0E94DE05B5CF8091FC0563
:10360000882351F046E050E06CE170E08AE296E0F9
:103610000E94A32E1092FC054091FD055091FE05DD
:103620006091FF05709100062FB7F8948091AD0569
:103630009091AE05A091AF05B091B0052FBF841B4E
:10364000950BA60BB70B4097A105B10508F48BCFDE
:103650001092150188CF0E9462139C01909146033D
:1036600080914703982B21F030934303209342032A
:103670009091480380914903982B21F030934103A6
:1036800020934003E091A805F091A905309749F0F7
:1036900082E0809344030480F581E02D84E493E08C
:1036A0000995089590E080E00E943C0590E080E05C
:1036B0000E94260510920F030E94761186E0E4E432
:1036C000F3E0DF011D928A95E9F710923E03109214
:1036D0003D0310923F030E942B1B08956093230328
:1036E0007093240380932503909326030E94521B1A
:1036F00008950F931F9341E050E060E070E004C034
:10370000440F551F661F771F8A95D2F7CB01BA0168
:1037100060957095809590950091230310912403F6
:103720002091250330912603602371238223932364
:103730000E946E1B1F910F9108959091EE0280954B
:1037400089238093EE02282F277091F4282F082ECA
:10375000000C330B9217130659F09091B20592FFAB
:1037600007C08595859585950E94791B1092EE027C
:103770000895CF93C091B205C2FB992790F998178D
:1037800091F080FBC2F9C093B2056091B10584E06D
:1037900090E00E94B32E6C2F82E290E00E94B32E44
:1037A00082E00E949D1BCF9108950F931F9341E0EB
:1037B00050E060E070E004C0440F551F661F771FA3
:1037C0008A95D2F78091230390912403A091250339
:1037D000B09126038A019B01082B192B2A2B3B2B26
:1037E000C901B8010E946E1B1F910F91089560934B
:1037F00012037093130380931403909315030E9494
:10380000521B08951092100380911401EAE6F2E031
:10381000882361F08091B10587FF08C08EE1DF0148
:103820001D928A95E9F70E94521B089586E0F7CF12
:10383000AAE2B0E0EEE1FCE10C94C82D8DED95E03C
:103840002091F100FC012193CF01F5E0853E9F0717
:10385000B9F78091DE05833009F470C0B8F4813087
:1038600009F447C0823009F4B1C08091E80083FFB9
:103870007EC28091DD059091DE059A3008F077C216
:10388000E92FF0E0E45AF04D0C94042E8A3009F44C
:103890008CC08B3009F46FC0893039F78091DD0519
:1038A000813219F78091E1059091E2050297E8F6DF
:1038B0008091E800877F8093E8008091E80082FF94
:1038C00038C09091F3008091F200029731F480911A
:1038D000F100813011F0863021F48091F100809365
:1038E000B8058091E8008B778093E8000E94B903C7
:1038F000BCCF8091DD05813A09F0B7CF8091E80017
:10390000877F8093E8008091E1059091E205892B03
:1039100061F460E289EB95E070E00E9465048091BB
:10392000E8008B778093E800A0CF60E090E080E033
:10393000F3CF8091DB058111C0CF97CF8091DD055A
:10394000813A09F092CF8091E1059091E205892BAF
:1039500009F08BCF8091E800877F8093E800809109
:10396000E80080FFFCCF809114018093F1008091EA
:10397000E8008E77B9CF8091DD05813209F075CFEF
:103980008091E1059091E205892B09F06ECF80913D
:10399000E800877F8093E8000E94B9038091DF05EB
:1039A000809314010E94021C60CF8091DD0581325A
:1039B00009F05BCF8091E800877F8093E8000E9448
:1039C000B9038091E0058093B7054FCF8091DD0565
:1039D000813A09F04ACF8091E800877F8093E80020
:1039E0008091E80080FFFCCF8091B705BECF803882
:1039F00099F0823809F0BBC18091E1058F70873062
:103A000008F0B5C18093E9008091EB0085FB882721
:103A100080F91092E90006C08091D9059091DA05ED
:103A2000911182609091E800977F9093E8008093D5
:103A3000F1001092F1008091E8008E7794C1882304
:103A400009F482C1823009F092C18091DF058111B1
:103A500085C18091E1058F702FEF280F263008F087
:103A600086C18093E9002091EB0020FF77C193305D
:103A700031F48091EB0080628093EB006FC19091F4
:103A8000EB0090619093EB0021E030E001C0220F49
:103A90008A95EAF72093EA001092EA008091EB0001
:103AA0008860EACF811163C11091DF051F77809193
:103AB000E3008078812B8093E3008091E800877F8A
:103AC0008093E8000E94B9038091E80080FFFCCF5A
:103AD0008091E30080688093E30082E0111183E02D
:103AE0008093DB0544C18058823008F040C180914A
:103AF000DF059091E0058C3D23E09207A1F583E07E
:103B00008A838AE289834FB7F894DE01139620E016
:103B10003EE051E2E32FF0E050935700E49120FFA4
:103B200003C0E295EF703F5FEF708E2F90E0EA30B8
:103B3000C0F0C7968D939D932F5F243159F74FBFE7
:103B40008091E800877F8093E8006AE270E0CE0110
:103B500001960E9465048091E8008B778093E800CD
:103B600006C1C096E7CF4091E1055091E205292FAB
:103B700033272330310509F444C078F5213031056D
:103B800009F46FC08BE390E0EAE3F5E02230310501
:103B900009F0EDC02091E800277F2093E8002091F4
:103BA000E3053091E4058217930708F49C0140E097
:103BB0002115310509F064C0411162C08091E8000F
:103BC00082FDC9CF8091DB05882329F2853019F267
:103BD0008091E80083FFF2CFBECF21323105A9F1F9
:103BE0002232310509F0C3C04115510509F443C023
:103BF0004130510509F0BBC086EB90E0E4E4F4E00D
:103C0000C9CF992781309105C1F0009759F00297EB
:103C100009F0ADC0E7E8F5E0E4918E2F90E0E7E829
:103C2000F5E007C0E3EBF5E0E4918E2F90E0E3EBE5
:103C3000F5E0009709F49BC0ADCFE3EAF5E0E4912D
:103C40008E2F90E0E3EAF5E0F4CF4115510571F0D5
:103C50004130510509F08BC089E090E0E5E6F5E0E0
:103C600099CF82E190E0E5E7F5E094CF89E090E03C
:103C7000ECE4F5E08FCF80E490E0EAEFF4E08ACF67
:103C80008091DB05882309F466CF853009F463CF82
:103C90008091E80083FD5FCF8091E80082FD8ECFA8
:103CA0008091E80080FF84CF9091F3008091F20032
:103CB0002115310519F08830910550F041E0089741
:103CC00009F040E08091E8008E778093E80070CFA3
:103CD00044914093F1003196215031090196E8CF8B
:103CE000803809F044C08091E800877F8093E80025
:103CF0008091DC058093F1009ECE811138C0109137
:103D0000DF051230A0F58091E800877F8093E800FE
:103D10001093DC050E94B903112311F084E005C063
:103D20008091E30087FDFACF81E08093DB0542E0DC
:103D300061EC81E00E94D80342E261EC82E00E94E3
:103D4000D8038091DB0513C08091DF05813079F4C1
:103D500081E0933009F080E08093DA051092E90069
:103D60008091E800877F8093E8000E94B9038091EA
:103D7000E80083FF0AC08091E800877F8093E80015
:103D80008091EB0080628093EB00AA96E3E00C94B4
:103D9000E42D1F920F920FB60F9211242F933F9391
:103DA0004F935F936F937F938F939F93AF93BF9343
:103DB000CF93DF93EF93FF93D091E900DF70809171
:103DC000EC00C82FC17080FDC0E81092E90080911E
:103DD000F000877F8093F00078940E94181C109266
:103DE000E9008091F00088608093F000CD2BCF70C7
:103DF000C093E900FF91EF91DF91CF91BF91AF9117
:103E00009F918F917F916F915F914F913F912F91F2
:103E10000F900FBE0F901F9018950E94021C2FEF5D
:103E200084E39CE0215080409040E1F700C0000016
:103E300088E19CE00FB6F894A895809360000FBECF
:103E400090936000FFCF882391F19CEF980F913AF7
:103E500040F4682F88E692E00E94C7040E94761121
:103E6000089590E2980F983050F4877091E001C067
:103E7000990F8A95EAF7892F0E94FF0DEFCF9BE5F6
:103E8000980F933028F490E080E00E943C0508955C
:103E900098E5980F973128F490E080E00E9426057D
:103EA00008958D3E20F00E94E50A0E942B1B089584
:103EB000CF93C82F8823D1F18CEF8C0F813AC0F5B6
:103EC00080911401882311F18091B10587FF1EC0F4
:103ED000EC2FE695E695E695F0E0E859FD4F8281F6
:103EE00090E04C2F477021E030E002C0220F331FDA
:103EF0004A95E2F782239323892B89F06C2F88E679
:103F000092E00E94C7040E94761109C0EAE6F2E03E
:103F10008191C81799F382E0E037F807C9F76C2F51
:103F200088E692E00E94F1040E947611CF910895F4
:103F300080E28C0F883068F4C77021E030E001C067
:103F4000220FCA95EAF780911003822B8093100309
:103F5000EBCFEBE5EC0FE33040F4F0E0E45EFE4F36
:103F6000808190E00E943C05E1CFE8E5EC0FE7316D
:103F700050F4F0E0EE0FFF1FE15EFE4F8081918173
:103F80000E942605D3CFCD3E88F28C2F0E94A00B35
:103F90000E942B1BCBCF0F931F93CF93DF93C62F82
:103FA000D42F022FFC0182818823A9F06093FB05A6
:103FB0000E9462139093FA058093F905C77081E01F
:103FC00001C0880FCA95EAF70E94D211DF91CF9104
:103FD0001F910F9108958091FB05681335C0809162
:103FE000F9059091FA050E945313883C910560F5FC
:103FF00010E21D0FCD17B9F080E28C0F883040F42D
:10400000C77081E001C0880FCA95EAF70E94CB1102
:10401000183048F481E09D2F977001C0880F9A9561
:10402000EAF70E94D211802F0E94581F802F0E9411
:10403000231F183058F6D77081E001C0880FDA9539
:10404000EAF70E94CB11C2CFC77081E001C0880F90
:10405000CA95EAF7F6CFA5E0B0E0E1E3F0E20C9410
:10406000BB2D7C01FC0183819481892B31F08081FF
:10407000918189238F3F09F0C5C42596E0E10C9416
:10408000D72D0E94100E182F682F89819A810E94C7
:104090008E0E69817A81812F0E94560C8C01843F9B
:1040A000FCE59F0709F483C018F5893D9C4509F498
:1040B0007AC00A3D8CE5180709F489C0083D9CE5E3
:1040C000190709F526E241EE61EEC7010E94CB1FF8
:1040D0008091EE02877089F2F7018281882369F26C
:1040E0008091B20582FFC9CF82E00E949D1BC5CF9F
:1040F000863FECE59E0709F462C008F45CC0873F88
:104100009C4509F460C0F7018281882309F48BC4BF
:104110001092FB050430FDE51F0708F05BC00B3F64
:104120002CE5120730F4C80182509C45449708F0F2
:104130005BC00E94DC119093B2058093B105013100
:104140009CE5190709F42BC108F0A7C00930FCE56C
:104150001F0709F40EC108F072C005303CE51307D3
:1041600009F4FFC008F057C003309CE5190709F4B3
:10417000EEC008F0F2C08091B10581600230FCE52C
:104180001F0709F4E7C06091B1051091B20584E002
:1041900090E00E94B32E612F82E290E00E94B32E45
:1041A0000E94021C95CF27E245EE65EE8ECF26E2F7
:1041B00041EE60EE8ACF27E245EE64EE86CF26E23E
:1041C00041EE62EE82CF27E245EE66EE7ECF28E238
:1041D00041E0EBCF02363DE5130709F4AACF063ADA
:1041E0008DE5180709F4A5CF06312CE5120709F073
:1041F00028C4809110038A7A91E009F490E09093AA
:10420000880269E2811165E388E692E00E94F10488
:104210000E9476115DCF8091B105806207302CE558
:10422000120709F497C08091B105806108303CE520
:10423000130708F48FC08091B10580648BC00D30E6
:104240008CE5180709F49FC0A0F48091B1058E7F1A
:104250000B30ECE51E0709F47DC08091B1058C6040
:104260000C30FCE51F0708F475C08091B1058D7F07
:1042700071C08091B1058F7E0F302CE5120709F4D3
:1042800069C08091B105877F00313CE5130708F4D0
:1042900061C08091B1058F7D5DC00E3F8CE5180730
:1042A00009F479C058F50531ECE51E0709F481C021
:1042B00098F48091B105837F03312CE5120709F44E
:1042C00049C008F470C00E94021C9091B105892F6A
:1042D00097FB87F980583EC00C3F8CE5180709F41E
:1042E00044C008F054C08091B20581600B3FECE5FA
:1042F0001E0709F048CF8093B20545CF0230FDE597
:104300001F0709F462C090F48091B2058C7F0115FB
:104310003DE5130781F398F18091B205982F9095B0
:1043200091708E7F892B90FB81F9E5CF02369DE558
:10433000190709F450C0063AEDE51E0709F452C00A
:104340000330FDE51F0709F01ECF60E03FC08091FC
:10435000B10582608093B10516CF8091B10584606C
:10436000F9CF8091B1058860F5CF8091B205826068
:10437000C2CF0E94021C8091B1058068EBCF809172
:10438000B2058360B8CF8091B1058B7FE3CF809178
:10439000B2058E7FB0CF8091B2058D7FACCF80917A
:1043A000B1058F7BD7CF0E94021C8091B1058F771A
:1043B000D1CF8091B10582FB992790F921E0922716
:1043C00090FB82F990FB83F9C5CF61E08EE090E02D
:1043D0000E94B32ED8CE9091B105892F8F7E94FF85
:1043E0008061B8CF9091B105892F8E7F90FF816059
:1043F000B1CF49EC55E063ED75E00E945F0568CEF2
:1044000043ED55E069EC75E0F8CF45EB55E06FEB17
:1044100075E0F3CF4FEB55E065EB75E0EECF4BE980
:1044200055E068EA75E0E9CF48EA55E06BE975E0E8
:10443000E4CF4EE855E061E875E0DFCF45E655E0B2
:1044400063E775E0DACF43E755E065E675E0D5CF81
:1044500081E00E9416033CCE89E0FBCF0E94021C43
:104460003FEF84E39CE0315080409040E1F700C092
:1044700000000E947C0F8091B20582FB882780F9A2
:1044800091E089270E94B91BF70182810081118187
:10449000882309F445C0C8010E94100ED82E682F49
:1044A000C8010E948E0EB8018D2D0E94560C0E94EC
:1044B000710C8C01882EF701D280958092943FE098
:1044C00093228091EE028770C1F0BD2CDD20B1F007
:1044D000812F807F803421F080E2800F883068F067
:1044E0008091B20582FF09C082E00E949D1B8091ED
:1044F000EE028770BB24B3948111B12CA12EA2943B
:104500002FE0A222FBE0FA1508F476C0EA2DF0E0D5
:10451000EA59F04D0C94042E81E0B4CF80E0B2CF84
:10452000C8010E94590ED82EBECF212F2F70C22E47
:10453000107F19F0C29490EFC922DD20B9F0CC2091
:1045400069F080E2800F883010F0811009C08091FE
:104550001003C82AC09210030E947611802F4AC00F
:1045600080910F03C82AC0920F03F6CF802F0E94BC
:10457000231FCC2009F440C0005E083010F08110E9
:1045800004C08C2D0E94FF0D06C0C09480910F03C3
:10459000C822C0920F030E9476112EC0312F3F70A7
:1045A000C32E107F103219F0C29480EFC8228820E9
:1045B00089F081E0881609F477C0DD2009F481C014
:1045C000992009F477C0F701858180FFC7CF8F70EC
:1045D000858370C02091B20522FD43C0DD20D9F152
:1045E000CC2039F080911003C82AC09210030E9499
:1045F000761180E00E94581FEA2DE850FF0B349797
:1046000010F40E945205BB20A9F08091EE0280FDBB
:1046100011C0F70112828595859585950E94D51B5D
:10462000C7010E942B208091EE0285958595859586
:104630000E94791B85E0F701DE01119601900D9231
:104640008A95E1F709811A81C8010E94590EB801C3
:104650000E94560C12CD80E00E94231FCC2061F2F4
:1046600090CFDD20A1F0909111038C2D892B91101A
:1046700003C00E94D211C0CFE1E09E12FACF22FF08
:10468000BBCF891709F4B8CF80931103B5CF911030
:1046900006C00E94F90D8C2D0E94CB11ADCFF1E028
:1046A0009F1609F4A9CFF5CFDD2031F025E02915BB
:1046B00008F4A2CF8C2DDDCF34E0391508F49CCF5F
:1046C000EACF992041F3F9E38F1295C12FEF37EE2E
:1046D00083E0215030408040E1F700C000008BC1F2
:1046E000812F86958695837061F0813009F084CFA3
:1046F000C8019370D11002C090E080E00E942605AE
:104700007BCFC8019370D11002C090E080E00E947E
:104710003C0572CF802FDD2029F00E94A00B0E9463
:104720002B1B6ACF0E94E50AFACF812F837009F014
:1047300066C0D11061CF802F829586958770880FD3
:10474000880F602F6F70462E512C712C612C082E13
:1047500004C0440C551C661C771C0A94D2F740E038
:1047600050E0BA0104FF0FC04FE050E060E070E09D
:1047700004C0440F551F661F771F8A95D2F74095D6
:10478000509560957095812F8695869583708230BF
:1047900019F1D8F40091120310911303209114031E
:1047A00030911503813069F044295529662977290C
:1047B000CB01BA0160237123822393230E94F71B4C
:1047C0001BCF402A512A622A732ACB01BA016429DD
:1047D000752986299729F2CF4429552966297729F1
:1047E00000911203109113032091140330911503CB
:1047F000CB01BA016027712782279327DFCF8695E7
:10480000DD2011F0812F8170882309F4F5CE802FEF
:10481000829586958770880F880F602F6F70462E5F
:10482000512C712C612C082E04C0440C551C661CA4
:10483000771C0A94D2F740E050E0BA0104FF0FC0A1
:104840004FE050E060E070E004C0440F551F661F69
:10485000771F8A95D2F74095509560957095812F76
:10486000869586958370823019F1D8F400912303E0
:10487000109124032091250330912603813069F0A3
:104880004429552966297729CB01BA016023712370
:10489000822393230E946E1BAFCE402A512A622AA4
:1048A000732ACB01BA016429752986299729F2CF89
:1048B000442955296629772900912303109124035F
:1048C0002091250330912603CB01BA01602771277F
:1048D00082279327DFCF1F70DD2029F0812F0E94D0
:1048E000D51B802FC6CE802F0E94CB11812F0E9416
:1048F000791B82CE802F92EF891609F43FC098155C
:1049000070F0E0EF8E16D1F0F1EF8F1691F0DD2010
:1049100009F46CC0911022CE812F8F7133C023EF28
:10492000821699F134EF8312F2CF8091B20582FDA5
:104930003FC0812F8F71DD20D1F224C0DD20C9F06E
:1049400084E0891508F458CE1F7161E070E080E0C2
:1049500090E004C0660F771F881F991F1A95D2F741
:104960000091230310912403209125033091260305
:10497000ADCF95E0991508F43FCEE6CF812F8F712A
:10498000D110B5CF0E94D51B37CE60E070E0CB01CF
:10499000DD2009F47FCF1F7161E070E080E090E0DE
:1049A00004C0660F771F881F991F1A95D2F772CF20
:1049B000DD2089F01F71812F0E94D51B8091B205E7
:1049C00082FF07C0E8E01E9FC0011124836080932E
:1049D000EE02812FD7CF81E00E949D1BF1E0F915F7
:1049E00008F00ACE82E00E949D1B06CE992039F085
:1049F000893309F46BCE802F0E94231FFDCD812FB8
:104A00008F7175CF85E0DE01119601900D928A9528
:104A1000E1F7F701228189819A81211132CB0E942D
:104A2000590E182F36CB0631FCE51F0741F5809152
:104A3000880269E2811165E388E692E00E94C7047A
:104A4000E7CB0B352DE5120709F466CD68F40115A7
:104A50008CE5180709F402CD0F3D1C4509F014CD73
:104A60000E94EA110E940D1F0D35EDE51E0709F4A5
:104A700002CD08F453CD083A1D45A1F305CD809130
:104A8000100382720B3C3CE5130709F4D2CCB0F55D
:104A9000063CECE51E0709F4B8CCD0F4043C2CE548
:104AA000120709F4A6CC08F0ABCC033C8CE5180740
:104AB00009F0EACC80912A0691E0892780932A06A2
:104AC000109215018091FC0581608093FC0500CB5C
:104AD000083C9CE5190709F4A2CC08F49BCC093CDE
:104AE000FCE51F0709F4A0CC41E855E06EE875E04D
:104AF0000A3C2CE5120709F480CCC6CC003D3CE50D
:104B0000130709F4A9CC98F40D3CECE51E0709F451
:104B10009ACC08F493CC0E3C2CE5120709F498CCFF
:104B200084E00F3C3CE5130709F493CCADCC073D82
:104B30008CE5180738F48EE0023D9CE5190708F46F
:104B400088CCC6CA0E35EDE51E0709F4C1CA9CCC57
:104B50001F93CF93DF938091BB02807F09F049C000
:104B60008091B802882309F444C08091ED02D0916D
:104B7000BC026091B6027091B702A091B902B091E7
:104B8000BA02C62FC72316E0D81799F190E0109704
:104B900011F0CF3F19F401968770F6CF189F90015E
:104BA000199F300D1124F901E354FD4F4181471342
:104BB000F2CF40814613EFCF42814111ECCF4381C8
:104BC00054814A1B5B0B483C510528F78091BB027E
:104BD0008F7080618093BB02F901EE53FD4F80819D
:104BE0008F708061808386EB92E00E942B200E9470
:104BF000060EDF91CF911F910895A1E1B0E0E3E0AF
:104C0000F6E20C94C12D8C0185E0F801DE011D96C1
:104C100001900D928A95E1F7F801E28086EBA82ECB
:104C200082E0B82E6091B9027091BA0261157105E7
:104C300009F426C19091B6024091B702892F8423CE
:104C40008F3F09F41DC120813181C380D480F09051
:104C5000B802F601E61BF70BFF2009F4DCC08091D7
:104C6000BB02582F507FE83CF10508F09FC051115E
:104C70006BC0FE2C431314C0921312C0E11010C07D
:104C80008F7080618093BB02C5010E942B208091B0
:104C9000BB02F80185838F2D6196EAE00C94DD2D2F
:104CA000C114D10429F0822F83238F3F09F003C15F
:104CB00080E0F82FF170DF2E80FF3CC08091ED0284
:104CC0004091BC0256E0841315C02D873E878D8528
:104CD0009E850E944C0E292F22952F702230F0F0D5
:104CE000243018F59F70F1F0F8019581907FD1F490
:104CF000D12C1EC090E0589FF001599FF00D112457
:104D0000E354FD4F6181361306C06081261303C052
:104D10006281E6120FC001968770D5CF9F7011F0A7
:104D2000882331F3805E883018F3C8010E942B205D
:104D3000FD2CB1CFEE2009F4AECF8091BB02816093
:104D40008093BB02F12CA7CF431306C0921304C07B
:104D5000F801EE2009F479C0C8010E94C60E88232C
:104D600009F1EE20F9F08091BB02803270F02091C1
:104D7000B6023091B70238872F831986DB86CA8640
:104D80008C87CE0107960E942B2086E0F801A6EBC7
:104D9000B2E001900D928A95E1F70E94A825FF24C8
:104DA000F39479CFC8010E942B20F9CF51110AC08A
:104DB00086EB92E00E942B2086E0F50111928A9505
:104DC000E9F7C0CF43130FC092130DC0E1100BC021
:104DD000F8018583C8010E942B2086E0F50111921D
:104DE0008A95E9F758CFC8010E94C60E8823D1F2F0
:104DF000EE20C1F28091BB02803238F22091B602DF
:104E00003091B7023A8329831B82DD82CC828E8364
:104E1000CE010196B8CFE83CF105F8F6FE2CEE2065
:104E200009F243131FC092131DC08091BB0280FD85
:104E300010C0982F907F69F0F8018583903F31F082
:104E4000982F907F905F8F70892B8583C8010E9477
:104E50002B2086E0F801A6EBB2E001900D928A9536
:104E6000E1F719CFC8010E94C60E81118ECF809143
:104E7000BB0281608093BB02C8010E942B200BCF34
:104E8000EE2009F48FCFC8010E94C60EF82E8823A9
:104E900009F488CF86E0F801A6EBB2E001900D920C
:104EA0008A95E1F78091B6029091B7020E944C0E6C
:104EB0000E94A825F0CE81E08E25FBCEA7E1B0E0D0
:104EC000E4E6F7E20C94C82D4B8B5C8B6D8B7E8BEC
:104ED0008F8B611110920F031A8A198A85E0FE01E7
:104EE0007396DE011D9601900D928A95E1F786E09A
:104EF000FE013D96DE01179601900D928A95E1F72D
:104F0000CE0107960E94FD25811112C086E0FE01A8
:104F10003796DE01119601900D928A95E1F78A8508
:104F20009B85892B29F088859F8189238F3F81F577
:104F300016E08091ED029091BC02891317C067962C
:104F4000E3E00C94E42D96E0929FD001939FB00D86
:104F50001124A354BD4FFE01319601900D929A95F4
:104F6000E1F78093BC020E94060EE2CF819FC00150
:104F7000112483549D4F0E94FD25882301F38091C5
:104F8000ED0290E00196877099278093ED02D1CFD2
:104F90002091BC0230E0C9010196877099274091A9
:104FA000ED024817190679F60E94021C1092BC0205
:104FB0001092ED0286E0E6EBF2E0DF011D928A95A9
:104FC000E9F7B6CFAAE0B0E0E8EEF7E20C94BF2D27
:104FD0008E010F5F1F4F8AE0F80111928A95E9F761
:104FE0009DE4E92E91E0F92E6801AA24A394B12C46
:104FF000F70181917F018F3F09F446C0F894E82FB3
:10500000E295EF70F0E021A18F70A50102C0440F7E
:10501000551F8A95E2F7CA01922F982B91A392A16E
:105020008095892382A3789400C0E2E5F1E021E035
:1050300030E0912C812C41914F3F09F481C0A42F85
:10504000A295AF70B0E090968C9190E04F7002C046
:10505000959587954A95E2F780FD72C0C901882A27
:10506000992A220F331F51E0E036F50721F7F701A7
:10507000319780818F3F11F00E94FC0B80EA8A9566
:10508000F1F7F60191828082F2E0CF0ED11C42E569
:10509000E41641E0F40609F0ABCF4AE050E0B80175
:1050A00089E193E00E946F2EFF24F394009709F4A6
:1050B000F12C892B09F447C08AE0F801A9E1B3E09B
:1050C00001900D928A95E1F781E0809318030E9488
:1050D00062139093170380931603809116039091A7
:1050E00017030E945313039790F180911903909135
:1050F0001A03909328038093270380911B039091B8
:105100001C0390932A038093290380911D0390919F
:105110001E0390932C0380932B0380911F03909187
:10512000200390932E0380932D038091210390916F
:1051300022039093300380932F031092180307C02B
:1051400090E080E08CCF809118038111C6CF8F2D25
:105150002A96ECE00C94DB2D1F921FB61F921124AF
:105160008F939F93AF93BF938091AC05811113C030
:105170008091AD059091AE05A091AF05B091B005BD
:105180004196A11DB11D8093AD059093AE05A093EE
:10519000AF05B093B005BF91AF919F918F911F90D4
:1051A0001FBE1F901895CDB7DEB761970FB6F89464
:1051B000DEBF0FBECDBF85B7806885BF85B780686D
:1051C00085BF84B7877F84BF0FB6F894A895809178
:1051D0006000886180936000109260000FBE80E8DC
:1051E00090E00FB6F89480936100909361000FBE39
:1051F0008AEF9BE090936702809366020E943F03D0
:105200000E940A048091E20084608093E200789416
:105210008091DB058823A1F01091E9001F70909127
:10522000EC00892F817090FD80E8182B1092E90026
:105230008091E80083FD0E94181C1F701093E90004
:1052400082E084BD93E095BD9AEF97BD80936E0098
:105250000DE411E0D8018D918D018F3F11F00E9476
:10526000FC0BB1E002351B07A9F702E511E0F801DC
:1052700081918F018F3F11F00E94FC0BF1E000360D
:105280001F07A9F78AE0E7E2F3E0DF01282F1D926C
:105290002A95E9F7E9E1F3E0DF011D928A95E9F744
:1052A00090E080E00E949D2E883E9E4F11F00E946B
:1052B000EA1182E090E00E94952E809331030E94D3
:1052C000DC119093B2058093B1050E94E227EFEBC9
:1052D000FDE53197F1F700C000000E94E2278091C0
:1052E000270380FF08C06FEF7FEF90E080E00E940F
:1052F000D12E0E947C0F83E090E00E94952E682FB3
:1053000070E090E080E00E94F71B0E943B1010923A
:1053100001068FEF9FEF90931B0680931A069093E0
:105320001D0680931C0690931F0680931E06909383
:105330002106809320069093230680932206909363
:105340002506809324069093270680932606909343
:1053500029068093280610929E049093B8048093A7
:10536000B7049093BA048093B9049093BC048093DB
:10537000BB049093BE048093BD049093C0048093BB
:10538000BF049093C2048093C1049093C40480939B
:10539000C3049093C6048093C50490E080E00E940B
:1053A0009D2E883E9E4F21F00E94EA110E945B11C3
:1053B00046E050E06CE170E08AE296E00E94852EC3
:1053C0001092FC0580912A068C7F11F40E945B11DB
:1053D00084E091E09093A9058093A80538E1232EFD
:1053E000312C41E3442E43E0542E9924939428E039
:1053F000622E712C8091DB0590E4F92E00E112E120
:10540000853009F468C10E94E227882359F08FB7DC
:10541000F8944091AD055091AE056091AF05709143
:10542000B0058FBFE7E2F3E0A2E3B3E0F12CE12C9B
:105430000E2DC190D1902D913D912C153D0509F473
:1054400073C210E0AA24A394B12C2C253D25A901F8
:105450004A215B21452B09F461C21F830887CA20BA
:10546000DB2081E0C114D10409F480E089870E9427
:1054700062138160782F9B878A874F815885698561
:105480008B850E945E27F701EE0FFF1FEE5CFC4F3D
:1054900080819181A826B926B182A082CD2871F0A1
:1054A0008EE08E9DF0018F9DF00D1124E859FE4F86
:1054B000E10FF11D80818F3F09F019C1812CC82CAB
:1054C000D12C80919E048C0D9D2D911D09975CF12E
:1054D0005301AC18BD08B60161567B4FA5018FE999
:1054E00094E00E947C2EB60169557B4FA50187EAA6
:1054F00094E00E947C2EA501440F551FB601660F53
:10550000771F69547B4F87EB94E00E947C2EB60195
:1055100061557B4FA5018FEA94E00E947C2E88E0C4
:10552000881980939E0480919E0490E04989A42F5D
:10553000B0E09D01220F331F22553E4FAA0FBB1F23
:10554000BD0161557E4F41E0480F981508F4D3C066
:1055500080939E0480912A068C7F8C3609F00FC1BF
:105560008FEF800FDD24D394D00E9FEF910FA1E039
:10557000A10F911780F43EE03E9DF0013F9DF00D9C
:105580001124E85AFB4FE90FF11D308140E1340F3F
:1055900008F43FEF3083612F70E03EE03E9DA001B4
:1055A0003F9D500D1124485A5B4FFA01E60FF71F3B
:1055B0003081B0E2232F3B2F230F08F42FEF2083FD
:1055C000AE3009F4FAC1FA01EA0FF11D308140E171
:1055D000340F08F43FEF308345E0D412A2C0911796
:1055E00070F42EE0829FF0011124E85AFB4FE90F7E
:1055F000F11D20813DE0230F08F42FEF20833EE0D2
:10560000839FC0011124885A9B4FFC01E60FF71FAE
:10561000208130E1230F08F42FEF2083AE3009F40E
:10562000AEC0A80FB92FB11D2C913DE0230F08F497
:105630002FEF2C93A4C08091DB05843009F43BC08C
:105640008091CB04811105C00E946E1380E00E94FE
:10565000DE0521E02093CB040E94521A8091CB04F6
:10566000811105C00E946E1380E00E94DE0531E0CA
:105670003093CB041092AC050FB6F894A895209205
:1056800060000FBEF092600083B7817F846083BFAB
:1056900083B7816083BF7894889583B78E7F83BFFB
:1056A0000FB6F894A895809160008861809360009F
:1056B000109260000FBE8091DA05882361F00E948D
:1056C000E227E7E2F3E081919191892B09F051C142
:1056D0004E165F06C1F78091DB05853009F4ABCF2C
:1056E0000E94021C0E9452051092CB048CCE898B22
:1056F00088248394E4CE90E0FC01E256FB4FD9016C
:105700005C915183DB015C915187B989B18B880F22
:10571000991FFC01E256FB4F128E118E91E0842FEF
:1057200012CF911770F45EE0D59EF0011124E85A73
:10573000FB4FE90FF11D30814DE0340F08F43FEFCE
:105740003083BEE0DB9E90011124285A3B4FF901C3
:10575000E60FF71F408150E1450F08F44FEF4083FB
:10576000AE3009F426C1F901EA0FF11D20813DE0B8
:10577000230F08F42FEF2083801708F430CF0E9406
:10578000521A86E0E4E4F3E0DE01119601900D92F6
:105790008A95E1F71092460310924703109248034E
:1057A000109249031B810C81812F802B09F448C082
:1057B00080914203909143030E9453139C01909166
:1057C0003E03992309F4F0C025313105C8F19F3F0C
:1057D00019F09F5F90933E03112359F00E94800BB4
:1057E0009FEF11160CF491E0899F802D1124809376
:1057F0004603002359F00E94800B9FEF10160CF413
:1058000091E0899F802D11248093470330914603B6
:105810003323B1F020914703222391F045EB340369
:10582000C0011124992309F498C09093460355EBC5
:10583000250390011124332309F492C030934703C8
:105840001D810E81812F802B09F448C08091400377
:10585000909141030E9453139C0190913D03992321
:1058600009F49DC021353105C8F19F3F19F09F5FB4
:1058700090933D03112359F00E945E0B9FEF111688
:105880000CF491E0899F802D11248093480300231C
:1058900059F00E945E0B9FEF10160CF491E0899F67
:1058A000802D112480934903309148033323B1F0B4
:1058B00020914903222391F045EB3403C0011124C8
:1058C000992309F450C09093480355EB25039001A8
:1058D0001124332309F44AC03093490346E050E0D1
:1058E000BE016F5F7F4F84E493E00E946F2E892B8F
:1058F00011F00E942B1B86E0FE013196A4E4B3E078
:1059000001900D928A95E1F70E94520590913C0317
:10591000891709F46FCD80933C0369CD1F5FAA0CF2
:10592000BB1C1E3009F093CD4FEFE41AF40A55E08A
:10593000E516F10409F07CCD8FEF8C878D871E86EC
:105940000E9462138160782F988B8F874C855D85CC
:105950006E8588890E945E2712CF9092460367CF9A
:10596000909247036DCF90924803AFCF9092490336
:10597000B5CF09BD19BD09B400FEFDCF8091D80097
:105980008F7D8093D8008091E00082608093E0005A
:105990008091E00081FDFCCF0E94021C9CCE2B3048
:1059A000310508F064CF9ACF2B30310508F011CFC4
:1059B00047CF801708F0E3CE14CEB5E0DB12B3CEAC
:1059C00010CE1092B9008CE08093B8000895B0E03A
:1059D000A0E0EDEEFCE20C94C02DB82EEB010E948D
:1059E00062136C01EE24E394F12CC431D10560F014
:1059F00025E0E22EF12CCF3FDC0731F0CE0164E14F
:105A000070E00E94A52D7B0184EAA82E94E8992ECF
:105A10001092BC00A092BC000E9462138C01809185
:105A2000BC0087FF0DC08091B900887F883001F1EC
:105A30008091B900887F8031D9F00FEF1FEF09C046
:105A40000E946213801B910B8E159F0540F30EEF91
:105A50001FEFCF3FDC07E1F2C6010E9453138C1702
:105A60009D07B0F2C801CDB7DEB7EBE00C94DC2D9A
:105A7000B092BB009092BC000E9462138C01809196
:105A8000BC0087FF0AC08091B900887F883111F07F
:105A9000803499F610E000E0E5CF0E946213801B8D
:105AA000910B8E159F0558F3D2CF0F931F93CF9371
:105AB000DF93EB018093BB0084E88093BC000E94DD
:105AC00062138C018091BC0087FF11C02091B90046
:105AD000287F81E090E0283211F490E080E09195F9
